{
    "contractName": "SimpleStorage",
    "abi": [
        {
            "inputs": [
                {
                    "internalType": "string",
                    "name": "_name",
                    "type": "string"
                },
                {
                    "internalType": "uint256",
                    "name": "_favoriteNumber",
                    "type": "uint256"
                }
            ],
            "name": "addPerson",
            "outputs": [],
            "stateMutability": "nonpayable",
            "type": "function"
        },
        {
            "inputs": [
                {
                    "internalType": "uint256",
                    "name": "",
                    "type": "uint256"
                }
            ],
            "name": "listOfPeople",
            "outputs": [
                {
                    "internalType": "uint256",
                    "name": "favoriteNumber",
                    "type": "uint256"
                },
                {
                    "internalType": "string",
                    "name": "name",
                    "type": "string"
                }
            ],
            "stateMutability": "view",
            "type": "function"
        },
        {
            "inputs": [
                {
                    "internalType": "string",
                    "name": "",
                    "type": "string"
                }
            ],
            "name": "nameToFavoriteNumber",
            "outputs": [
                {
                    "internalType": "uint256",
                    "name": "",
                    "type": "uint256"
                }
            ],
            "stateMutability": "view",
            "type": "function"
        },
        {
            "inputs": [],
            "name": "retrieve",
            "outputs": [
                {
                    "internalType": "uint256",
                    "name": "",
                    "type": "uint256"
                }
            ],
            "stateMutability": "view",
            "type": "function"
        },
        {
            "inputs": [
                {
                    "internalType": "uint256",
                    "name": "_favoriteNumber",
                    "type": "uint256"
                }
            ],
            "name": "store",
            "outputs": [],
            "stateMutability": "nonpayable",
            "type": "function"
        }
    ],
    "bytecode": "608080604052346100165761056d908161001c8239f35b600080fdfe608060408181526004918236101561001657600080fd5b600090813560e01c9081632e64cec1146103dc575080632ebce631146102de5780636057361d146102c15780636f760f41146100b957638bab8dd51461005b57600080fd5b346100b65760203660031901126100b65782359067ffffffffffffffff82116100b65750602061009281946100a4933691016104db565b818451938285809451938492016104b8565b81016002815203019020549051908152f35b80fd5b5091346102bd57816003193601126102bd5767ffffffffffffffff81358181116102b9576100ea90369084016104db565b602435938051818101818110858211176102a657825285815260209384820191848352600190815468010000000000000000811015610293578083610131920184556103f6565b9190916102815790829151815501925196875192831161026e57506101568354610446565b601f8111610228575b508596601f83116001146101bb57918080926101a299899796958d946101b0575b50501b916000199060031b1c19161790555b51938285809451938492016104b8565b810160028152030190205580f35b015192503880610180565b909293949596601f19831691858b52888b20928b5b818110610213575091899897959391856101a29b989694106101fa575b505050811b019055610192565b015160001960f88460031b161c191690553880806101ed565b82840151855593860193928a01928a016101d0565b838a52868a20601f840160051c810191888510610264575b601f0160051c019082905b82811061025957505061015f565b8b815501829061024b565b9091508190610240565b634e487b7160e01b8a5260419052602489fd5b634e487b7160e01b8b528a895260248bfd5b634e487b7160e01b8b526041895260248bfd5b634e487b7160e01b885260418652602488fd5b8480fd5b8280fd5b5082346102da5760203660031901126102da5735815580f35b5080fd5b50346100b657602092836003193601126102da57359060019182548110156102da57610309906103f6565b509180835493019085855192849281549561032387610446565b928387528487019783811690816000146103b95750600114610380575b8460608a8a6103728e8c610356818e0382610480565b81805197889687528601525192838092860152858501906104b8565b601f01601f19168101030190f35b9080949550528383205b8284106103a65750505082010185610356836060610372610340565b805486850186015292840192810161038a565b60ff1916895250505050151560051b830101905085610356836060610372610340565b9050346102da57816003193601126102da57602091548152f35b60015481101561043057600160005260011b7fb10e2d527612073b26eecdfd717e6a320cf44b4afac2b0732d9fcbe2b7fa0cf60190600090565b634e487b7160e01b600052603260045260246000fd5b90600182811c92168015610476575b602083101461046057565b634e487b7160e01b600052602260045260246000fd5b91607f1691610455565b90601f8019910116810190811067ffffffffffffffff8211176104a257604052565b634e487b7160e01b600052604160045260246000fd5b60005b8381106104cb5750506000910152565b81810151838201526020016104bb565b81601f820112156105325780359067ffffffffffffffff82116104a25760405192610510601f8401601f191660200185610480565b8284526020838301011161053257816000926020809301838601378301015290565b600080fdfea2646970667358221220c22334eff3eaf2e0e8d8198406bf32572b34b7f6d664ddcd243997742fe2492d64736f6c63430008130033",
    "sourcePath": "/root/Blockchain/foundry-23/foundry-simple-storage-23/src/Simple-Storage.sol",
    "compiler": {
        "name": "solc",
        "version": "0.8.19+commit.7dd6d404"
    },
    "functionHashes": {
        "addPerson(string,uint256)": "6f760f41",
        "listOfPeople(uint256)": "2ebce631",
        "nameToFavoriteNumber(string)": "8bab8dd5",
        "retrieve()": "2e64cec1",
        "store(uint256)": "6057361d"
    },
    "gasEstimates": {
        "creation": {
            "codeDepositCost": "277800",
            "executionCost": "325",
            "totalCost": "278125"
        },
        "external": {
            "addPerson(string,uint256)": "infinite",
            "listOfPeople(uint256)": "infinite",
            "nameToFavoriteNumber(string)": "infinite",
            "retrieve()": "2267",
            "store(uint256)": "22304"
        }
    }
}